{
  "_format": "hh3-artifact-1",
  "contractName": "FortunaCore",
  "sourceName": "contracts/FortunaCore.sol",
  "abi": [
    {
      "inputs": [
        {
          "internalType": "address",
          "name": "managerAddress",
          "type": "address"
        },
        {
          "internalType": "uint256",
          "name": "entryFee",
          "type": "uint256"
        },
        {
          "internalType": "uint256",
          "name": "platformFeeBP",
          "type": "uint256"
        },
        {
          "internalType": "address",
          "name": "vrfCoordinator_",
          "type": "address"
        },
        {
          "internalType": "bytes32",
          "name": "keyHash_",
          "type": "bytes32"
        },
        {
          "internalType": "uint256",
          "name": "subscriptionId_",
          "type": "uint256"
        },
        {
          "internalType": "uint32",
          "name": "callbackGasLimit_",
          "type": "uint32"
        },
        {
          "internalType": "uint16",
          "name": "requestConfirmations_",
          "type": "uint16"
        }
      ],
      "stateMutability": "nonpayable",
      "type": "constructor"
    },
    {
      "inputs": [],
      "name": "InvalidEntryFee",
      "type": "error"
    },
    {
      "inputs": [],
      "name": "InvalidRoundId",
      "type": "error"
    },
    {
      "inputs": [],
      "name": "SystemPaused",
      "type": "error"
    },
    {
      "anonymous": false,
      "inputs": [
        {
          "indexed": true,
          "internalType": "address",
          "name": "admin",
          "type": "address"
        }
      ],
      "name": "AdminAdded",
      "type": "event"
    },
    {
      "anonymous": false,
      "inputs": [
        {
          "indexed": true,
          "internalType": "address",
          "name": "admin",
          "type": "address"
        }
      ],
      "name": "AdminRemoved",
      "type": "event"
    },
    {
      "anonymous": false,
      "inputs": [
        {
          "indexed": false,
          "internalType": "uint256",
          "name": "oldFee",
          "type": "uint256"
        },
        {
          "indexed": false,
          "internalType": "uint256",
          "name": "newFee",
          "type": "uint256"
        }
      ],
      "name": "EntryFeeUpdated",
      "type": "event"
    },
    {
      "anonymous": false,
      "inputs": [
        {
          "indexed": true,
          "internalType": "uint256",
          "name": "roundId",
          "type": "uint256"
        },
        {
          "indexed": false,
          "internalType": "uint256",
          "name": "timestamp",
          "type": "uint256"
        }
      ],
      "name": "NewRoundCreated",
      "type": "event"
    },
    {
      "anonymous": false,
      "inputs": [
        {
          "indexed": true,
          "internalType": "address",
          "name": "previousOwner",
          "type": "address"
        },
        {
          "indexed": true,
          "internalType": "address",
          "name": "newOwner",
          "type": "address"
        }
      ],
      "name": "OwnershipTransferred",
      "type": "event"
    },
    {
      "anonymous": false,
      "inputs": [
        {
          "indexed": true,
          "internalType": "uint256",
          "name": "roundId",
          "type": "uint256"
        },
        {
          "indexed": true,
          "internalType": "address",
          "name": "player",
          "type": "address"
        },
        {
          "indexed": false,
          "internalType": "uint256",
          "name": "entryFee",
          "type": "uint256"
        }
      ],
      "name": "PlayerJoined",
      "type": "event"
    },
    {
      "anonymous": false,
      "inputs": [
        {
          "indexed": true,
          "internalType": "uint256",
          "name": "roundId",
          "type": "uint256"
        },
        {
          "indexed": false,
          "internalType": "uint256",
          "name": "totalPlayers",
          "type": "uint256"
        },
        {
          "indexed": false,
          "internalType": "uint256",
          "name": "prizePool",
          "type": "uint256"
        }
      ],
      "name": "RoundClosed",
      "type": "event"
    },
    {
      "anonymous": false,
      "inputs": [
        {
          "indexed": true,
          "internalType": "address",
          "name": "by",
          "type": "address"
        }
      ],
      "name": "SystemPaused",
      "type": "event"
    },
    {
      "anonymous": false,
      "inputs": [
        {
          "indexed": true,
          "internalType": "address",
          "name": "by",
          "type": "address"
        }
      ],
      "name": "SystemUnpaused",
      "type": "event"
    },
    {
      "inputs": [
        {
          "internalType": "address",
          "name": "admin",
          "type": "address"
        }
      ],
      "name": "addAdmin",
      "outputs": [],
      "stateMutability": "nonpayable",
      "type": "function"
    },
    {
      "inputs": [
        {
          "internalType": "address",
          "name": "",
          "type": "address"
        }
      ],
      "name": "admins",
      "outputs": [
        {
          "internalType": "bool",
          "name": "",
          "type": "bool"
        }
      ],
      "stateMutability": "view",
      "type": "function"
    },
    {
      "inputs": [],
      "name": "callbackGasLimit",
      "outputs": [
        {
          "internalType": "uint32",
          "name": "",
          "type": "uint32"
        }
      ],
      "stateMutability": "view",
      "type": "function"
    },
    {
      "inputs": [],
      "name": "createNewRound",
      "outputs": [
        {
          "internalType": "uint256",
          "name": "",
          "type": "uint256"
        }
      ],
      "stateMutability": "nonpayable",
      "type": "function"
    },
    {
      "inputs": [],
      "name": "currentRoundId",
      "outputs": [
        {
          "internalType": "uint256",
          "name": "",
          "type": "uint256"
        }
      ],
      "stateMutability": "view",
      "type": "function"
    },
    {
      "inputs": [],
      "name": "getActiveRound",
      "outputs": [
        {
          "internalType": "uint256",
          "name": "",
          "type": "uint256"
        }
      ],
      "stateMutability": "view",
      "type": "function"
    },
    {
      "inputs": [],
      "name": "getEntryFee",
      "outputs": [
        {
          "internalType": "uint256",
          "name": "",
          "type": "uint256"
        }
      ],
      "stateMutability": "view",
      "type": "function"
    },
    {
      "inputs": [],
      "name": "getPlatformBalance",
      "outputs": [
        {
          "internalType": "uint256",
          "name": "",
          "type": "uint256"
        }
      ],
      "stateMutability": "view",
      "type": "function"
    },
    {
      "inputs": [
        {
          "internalType": "uint256",
          "name": "roundId",
          "type": "uint256"
        }
      ],
      "name": "getRoundInfo",
      "outputs": [
        {
          "components": [
            {
              "internalType": "uint256",
              "name": "roundId",
              "type": "uint256"
            },
            {
              "internalType": "uint256",
              "name": "startTimestamp",
              "type": "uint256"
            },
            {
              "internalType": "uint256",
              "name": "endTimestamp",
              "type": "uint256"
            },
            {
              "internalType": "uint256",
              "name": "entryFee",
              "type": "uint256"
            },
            {
              "internalType": "uint256",
              "name": "prizePool",
              "type": "uint256"
            },
            {
              "internalType": "uint256",
              "name": "playerCount",
              "type": "uint256"
            },
            {
              "internalType": "bool",
              "name": "isClosed",
              "type": "bool"
            },
            {
              "internalType": "address",
              "name": "winner",
              "type": "address"
            }
          ],
          "internalType": "struct Types.RoundInfo",
          "name": "",
          "type": "tuple"
        }
      ],
      "stateMutability": "view",
      "type": "function"
    },
    {
      "inputs": [
        {
          "internalType": "uint256",
          "name": "roundId",
          "type": "uint256"
        }
      ],
      "name": "joinRound",
      "outputs": [],
      "stateMutability": "payable",
      "type": "function"
    },
    {
      "inputs": [],
      "name": "keyHash",
      "outputs": [
        {
          "internalType": "bytes32",
          "name": "",
          "type": "bytes32"
        }
      ],
      "stateMutability": "view",
      "type": "function"
    },
    {
      "inputs": [],
      "name": "manager",
      "outputs": [
        {
          "internalType": "contract IFortunaManager",
          "name": "",
          "type": "address"
        }
      ],
      "stateMutability": "view",
      "type": "function"
    },
    {
      "inputs": [],
      "name": "owner",
      "outputs": [
        {
          "internalType": "address",
          "name": "",
          "type": "address"
        }
      ],
      "stateMutability": "view",
      "type": "function"
    },
    {
      "inputs": [],
      "name": "pause",
      "outputs": [],
      "stateMutability": "nonpayable",
      "type": "function"
    },
    {
      "inputs": [
        {
          "internalType": "address",
          "name": "admin",
          "type": "address"
        }
      ],
      "name": "removeAdmin",
      "outputs": [],
      "stateMutability": "nonpayable",
      "type": "function"
    },
    {
      "inputs": [],
      "name": "requestConfirmations",
      "outputs": [
        {
          "internalType": "uint16",
          "name": "",
          "type": "uint16"
        }
      ],
      "stateMutability": "view",
      "type": "function"
    },
    {
      "inputs": [
        {
          "internalType": "uint256",
          "name": "",
          "type": "uint256"
        }
      ],
      "name": "roundContracts",
      "outputs": [
        {
          "internalType": "address payable",
          "name": "",
          "type": "address"
        }
      ],
      "stateMutability": "view",
      "type": "function"
    },
    {
      "inputs": [
        {
          "internalType": "uint256",
          "name": "fee",
          "type": "uint256"
        }
      ],
      "name": "setEntryFee",
      "outputs": [],
      "stateMutability": "nonpayable",
      "type": "function"
    },
    {
      "inputs": [],
      "name": "subscriptionId",
      "outputs": [
        {
          "internalType": "uint256",
          "name": "",
          "type": "uint256"
        }
      ],
      "stateMutability": "view",
      "type": "function"
    },
    {
      "inputs": [
        {
          "internalType": "address",
          "name": "newOwner",
          "type": "address"
        }
      ],
      "name": "transferOwnership",
      "outputs": [],
      "stateMutability": "nonpayable",
      "type": "function"
    },
    {
      "inputs": [],
      "name": "unpause",
      "outputs": [],
      "stateMutability": "nonpayable",
      "type": "function"
    },
    {
      "inputs": [],
      "name": "vrfCoordinator",
      "outputs": [
        {
          "internalType": "address",
          "name": "",
          "type": "address"
        }
      ],
      "stateMutability": "view",
      "type": "function"
    },
    {
      "inputs": [
        {
          "internalType": "address",
          "name": "to",
          "type": "address"
        }
      ],
      "name": "withdrawPlatformFees",
      "outputs": [],
      "stateMutability": "nonpayable",
      "type": "function"
    }
  ],
  "bytecode": "0x608060405234801561000f575f5ffd5b5060405161232538038061232583398101604081905261002e91610158565b5f80546001600160a01b0319163390811782556040519091907f8be0079c531659141344cd1fd0a4f28419497f9722a3daafe3b4186f6b6457e0908290a36001600160a01b0388166100b75760405162461bcd60e51b815260206004820152600e60248201526d24b73b30b634b226b0b730b3b2b960911b604482015260640160405180910390fd5b600280546001600160a01b03199081166001600160a01b039a8b16179091556003979097556004959095556005805460ff19169055600880549096169390961692909217909355600992909255600a91909155600b805463ffffffff90931665ffffffffffff199093169290921764010000000061ffff909216919091021790556101e6565b80516001600160a01b0381168114610153575f5ffd5b919050565b5f5f5f5f5f5f5f5f610100898b031215610170575f5ffd5b6101798961013d565b60208a015160408b01519199509750955061019660608a0161013d565b60808a015160a08b015160c08c0151929750909550935063ffffffff811681146101be575f5ffd5b60e08a015190925061ffff811681146101d5575f5ffd5b809150509295985092959890939650565b612132806101f35f395ff3fe60806040526004361061013c575f3560e01c806387e7ae5c116100b3578063b3b618011161006d578063b3b61801146103f0578063ba9bf75714610403578063e586a4f014610417578063eb770d0c1461042b578063ec3889b51461044a578063f2fde38b14610469575f5ffd5b806387e7ae5c146102cf57806388c3ffb0146102e35780638da5cb5b146103695780639cbe5efd14610387578063a3e56fa81461039c578063b0fb162f146103bb575f5ffd5b80633f4ba83a116101045780633f4ba83a14610216578063429b62e51461022a578063481c6a751461026857806361728f3914610287578063704802751461029c5780638456cb59146102bb575f5ffd5b806306c5b7a01461014057806309c1ba2e146101635780631785f53c1461017857806324f74697146101995780632b64f2c0146101ca575b5f5ffd5b34801561014b575f5ffd5b506006545b6040519081526020015b60405180910390f35b34801561016e575f5ffd5b50610150600a5481565b348015610183575f5ffd5b50610197610192366004611002565b610488565b005b3480156101a4575f5ffd5b50600b546101b59063ffffffff1681565b60405163ffffffff909116815260200161015a565b3480156101d5575f5ffd5b506101fe6101e436600461101d565b60076020525f90815260409020546001600160a01b031681565b6040516001600160a01b03909116815260200161015a565b348015610221575f5ffd5b50610197610502565b348015610235575f5ffd5b50610258610244366004611002565b60016020525f908152604090205460ff1681565b604051901515815260200161015a565b348015610273575f5ffd5b506002546101fe906001600160a01b031681565b348015610292575f5ffd5b5061015060095481565b3480156102a7575f5ffd5b506101976102b6366004611002565b61057a565b3480156102c6575f5ffd5b5061019761063d565b3480156102da575f5ffd5b506101506106b8565b3480156102ee575f5ffd5b506103026102fd36600461101d565b610707565b60405161015a9190815181526020808301519082015260408083015190820152606080830151908201526080808301519082015260a0808301519082015260c08083015115159082015260e0918201516001600160a01b0316918101919091526101000190565b348015610374575f5ffd5b505f546101fe906001600160a01b031681565b348015610392575f5ffd5b5061015060065481565b3480156103a7575f5ffd5b506008546101fe906001600160a01b031681565b3480156103c6575f5ffd5b50600b546103dd90640100000000900461ffff1681565b60405161ffff909116815260200161015a565b6101976103fe36600461101d565b6107d3565b34801561040e575f5ffd5b50610150610a19565b348015610422575f5ffd5b50600354610150565b348015610436575f5ffd5b5061019761044536600461101d565b610a84565b348015610455575f5ffd5b50610197610464366004611002565b610b0b565b348015610474575f5ffd5b50610197610483366004611002565b610baa565b5f546001600160a01b031633146104ba5760405162461bcd60e51b81526004016104b190611034565b60405180910390fd5b6001600160a01b0381165f81815260016020526040808220805460ff19169055517fa3b62bc36326052d97ea62d63c3d60308ed4c3ea8ac079dd8499f1e9c4f80c0f9190a250565b335f9081526001602052604090205460ff168061052857505f546001600160a01b031633145b6105445760405162461bcd60e51b81526004016104b19061106b565b6005805460ff1916905560405133907f92414512bd79c80103975d8bef2f4e78aa5930c2869b4bd6139d98836ba8d918905f90a2565b5f546001600160a01b031633146105a35760405162461bcd60e51b81526004016104b190611034565b6001600160a01b0381166105ef5760405162461bcd60e51b815260206004820152601360248201527241646d696e3a207a65726f206164647265737360681b60448201526064016104b1565b6001600160a01b0381165f818152600160208190526040808320805460ff1916909217909155517f44d6d25963f097ad14f29f06854a01f575648a1ef82f30e562ccd3889717e3399190a250565b335f9081526001602052604090205460ff168061066357505f546001600160a01b031633145b61067f5760405162461bcd60e51b81526004016104b19061106b565b6005805460ff1916600117905560405133907f0e453e53649b13b8c30ef82dd7bce6c745cfcc7a1dc95170b4750764194f19b2905f90a2565b335f9081526001602052604081205460ff16806106de57505f546001600160a01b031633145b6106fa5760405162461bcd60e51b81526004016104b19061106b565b610702610c82565b905090565b6107526040518061010001604052805f81526020015f81526020015f81526020015f81526020015f81526020015f81526020015f151581526020015f6001600160a01b031681525090565b5f828152600760205260409081902054815163425e3b5360e11b815291516001600160a01b039091169182916384bc76a691600480820192610100929091908290030181865afa1580156107a8573d5f5f3e3d5ffd5b505050506040513d601f19601f820116820180604052508101906107cc91906110c1565b9392505050565b60055460ff16156107f7576040516301ca793160e61b815260040160405180910390fd5b600354341461081957604051636fe6a4c960e01b815260040160405180910390fd5b60025460405163447fe72d60e11b8152600481018390526001600160a01b03909116906388ffce5a90602401602060405180830381865afa158015610860573d5f5f3e3d5ffd5b505050506040513d601f19601f820116820180604052508101906108849190611166565b6108a15760405163bfbe031f60e01b815260040160405180910390fd5b5f8181526007602052604090819020549051635893afcd60e11b81523360048201526001600160a01b0390911690819063b1275f9a9034906024015f604051808303818588803b1580156108f3575f5ffd5b505af1158015610905573d5f5f3e3d5ffd5b50506040513481523393508592507f03dfbe1fcb4e2d61f3b4a0c93d8f814c92250618b3387f396cc9fc9fafe2c203915060200160405180910390a3806001600160a01b031663feb6e1636040518163ffffffff1660e01b8152600401602060405180830381865afa15801561097d573d5f5f3e3d5ffd5b505050506040513d601f19601f820116820180604052508101906109a19190611166565b80610a075750806001600160a01b0316632f13b60c6040518163ffffffff1660e01b8152600401602060405180830381865afa1580156109e3573d5f5f3e3d5ffd5b505050506040513d601f19601f82011682018060405250810190610a079190611166565b15610a1557610a1582610e68565b5050565b600254604080516306c6fe7560e51b815290515f926001600160a01b03169163d8dfcea09160048083019260209291908290030181865afa158015610a60573d5f5f3e3d5ffd5b505050506040513d601f19601f82011682018060405250810190610702919061117f565b335f9081526001602052604090205460ff1680610aaa57505f546001600160a01b031633145b610ac65760405162461bcd60e51b81526004016104b19061106b565b600380549082905560408051828152602081018490527f6a75d918a59da9597a749b7c707f23cfa76552074b43c68a24a21db1c45841f1910160405180910390a15050565b335f9081526001602052604090205460ff1680610b3157505f546001600160a01b031633145b610b4d5760405162461bcd60e51b81526004016104b19061106b565b600254604051632d80caa560e01b81526001600160a01b03838116600483015290911690632d80caa5906024015f604051808303815f87803b158015610b91575f5ffd5b505af1158015610ba3573d5f5f3e3d5ffd5b5050505050565b5f546001600160a01b03163314610bd35760405162461bcd60e51b81526004016104b190611034565b6001600160a01b038116610c295760405162461bcd60e51b815260206004820181905260248201527f41646d696e3a206e6577206f776e6572206973207a65726f206164647265737360448201526064016104b1565b5f80546040516001600160a01b03808516939216917f8be0079c531659141344cd1fd0a4f28419497f9722a3daafe3b4186f6b6457e091a35f80546001600160a01b0319166001600160a01b0392909216919091179055565b5f600160065f828254610c9591906111aa565b9091555050600654600354600254600854600954600a54600b5460405142975f979096909589956001600160a01b039283169530959390921693909263ffffffff81169164010000000090910461ffff1690610cf090610fde565b998a5260208a019890985267ffffffffffffffff90961660408901526001600160a01b0394851660608901529284166080880152921660a086015260c085019190915260e084015263ffffffff1661010083015261ffff1661012082015261014001604051809103905ff080158015610d6b573d5f5f3e3d5ffd5b50600680545f90815260076020526040902080546001600160a01b0319166001600160a01b03848116919091179091556002549154929350169063b1ce73f890610db685603c6111c3565b6003546040516001600160e01b031960e086901b168152600481019390935267ffffffffffffffff90911660248301526044820152603260648201526084015f604051808303815f87803b158015610e0c575f5ffd5b505af1158015610e1e573d5f5f3e3d5ffd5b505050506006547f9dabc2c637f100895272835b1380dc71381557c8025b8c7af70b855e64bd031a42604051610e5691815260200190565b60405180910390a26006549250505090565b5f8181526007602052604080822054815163e278fe6f60e01b815291516001600160a01b0390911692839263e278fe6f926004808301939282900301818387803b158015610eb4575f5ffd5b505af1158015610ec6573d5f5f3e3d5ffd5b505060025460405163248f849f60e11b8152600481018690528593507fa20a3cd9775b12d4a53017859be239856468d3aab2d496ff3e4b54929963432792506001600160a01b039091169063491f093e90602401602060405180830381865afa158015610f35573d5f5f3e3d5ffd5b505050506040513d601f19601f82011682018060405250810190610f59919061117f565b836001600160a01b031663884bf67c6040518163ffffffff1660e01b8152600401602060405180830381865afa158015610f95573d5f5f3e3d5ffd5b505050506040513d601f19601f82011682018060405250810190610fb9919061117f565b6040805192835260208301919091520160405180910390a2610fd9610c82565b505050565b610f19806111e483390190565b6001600160a01b0381168114610fff575f5ffd5b50565b5f60208284031215611012575f5ffd5b81356107cc81610feb565b5f6020828403121561102d575f5ffd5b5035919050565b6020808252601e908201527f41646d696e3a2063616c6c6572206973206e6f7420746865206f776e65720000604082015260600190565b6020808252601a908201527f41646d696e3a2063616c6c6572206973206e6f742061646d696e000000000000604082015260600190565b805180151581146110b1575f5ffd5b919050565b80516110b181610feb565b5f6101008284031280156110d3575f5ffd5b50604051610100810167ffffffffffffffff8111828210171561110457634e487b7160e01b5f52604160045260245ffd5b604090815283518252602080850151908301528381015190820152606080840151908201526080808401519082015260a0808401519082015261114960c084016110a2565b60c082015261115a60e084016110b6565b60e08201529392505050565b5f60208284031215611176575f5ffd5b6107cc826110a2565b5f6020828403121561118f575f5ffd5b5051919050565b634e487b7160e01b5f52601160045260245ffd5b808201808211156111bd576111bd611196565b92915050565b67ffffffffffffffff81811683821601908111156111bd576111bd61119656fe60a060405234801561000f575f5ffd5b50604051610f19380380610f1983398101604081905261002e91610194565b6001600160a01b0380861660805287166100805760405162461bcd60e51b815260206004820152600e60248201526d24b73b30b634b226b0b730b3b2b960911b60448201526064015b60405180910390fd5b6001600160a01b0386166100c45760405162461bcd60e51b815260206004820152600b60248201526a496e76616c6964436f726560a81b6044820152606401610077565b5f8a905560018890556100d888603c61023d565b600255600398909855600680545f6005556001600160a81b0319169055600880546001600160a01b03199081166001600160a01b039889161790915560098054821696881696909617909555600a80549095169390951692909217909255600c91909155600b55600d805463ffffffff90921665ffffffffffff199092169190911764010000000061ffff9094169390930292909217909155506102629050565b80516001600160a01b038116811461018f575f5ffd5b919050565b5f5f5f5f5f5f5f5f5f5f6101408b8d0312156101ae575f5ffd5b8a5160208c015160408d0151919b50995097506101cd60608c01610179565b96506101db60808c01610179565b95506101e960a08c01610179565b60c08c015160e08d01516101008e0151929750909550935063ffffffff81168114610212575f5ffd5b6101208c015190925061ffff8116811461022a575f5ffd5b809150509295989b9194979a5092959850565b8082018082111561025c57634e487b7160e01b5f52601160045260245ffd5b92915050565b608051610c986102815f395f81816102fd015261033f0152610c985ff3fe6080604052600436106100e7575f3560e01c80638678a7b211610087578063e3cfef6011610057578063e3cfef6014610294578063f2f4eb26146102a8578063f57ee77b146102c7578063feb6e163146102da575f5ffd5b80638678a7b214610245578063884bf67c14610259578063b1275f9a1461026d578063e278fe6f14610280575f5ffd5b8063481c6a75116100c2578063481c6a751461015e5780635aa68ac01461019557806377b6e504146101b657806384bc76a6146101ca575f5ffd5b80631fe543e3146100f25780632f13b60c1461011357806342619f661461013b575f5ffd5b366100ee57005b5f5ffd5b3480156100fd575f5ffd5b5061011161010c366004610a5a565b6102f2565b005b34801561011e575f5ffd5b506002544210155b60405190151581526020015b60405180910390f35b348015610146575f5ffd5b50610150600e5481565b604051908152602001610132565b348015610169575f5ffd5b5060085461017d906001600160a01b031681565b6040516001600160a01b039091168152602001610132565b3480156101a0575f5ffd5b506101a961037e565b6040516101329190610b2e565b3480156101c1575f5ffd5b506101116103de565b3480156101d5575f5ffd5b506101de610584565b6040516101329190815181526020808301519082015260408083015190820152606080830151908201526080808301519082015260a0808301519082015260c08083015115159082015260e0918201516001600160a01b0316918101919091526101000190565b348015610250575f5ffd5b5061015061062d565b348015610264575f5ffd5b50610150610747565b61011161027b366004610b79565b61075d565b34801561028b575f5ffd5b506101116108ae565b34801561029f575f5ffd5b50610150610960565b3480156102b3575f5ffd5b5060095461017d906001600160a01b031681565b3480156102d2575f5ffd5b505f54610150565b3480156102e5575f5ffd5b5060075460321115610126565b336001600160a01b037f000000000000000000000000000000000000000000000000000000000000000016146103705760405163073e64fd60e21b81523360048201526001600160a01b037f000000000000000000000000000000000000000000000000000000000000000016602482015260440160405180910390fd5b61037a828261097e565b5050565b606060078054806020026020016040519081016040528092919081815260200182805480156103d457602002820191905f5260205f20905b81546001600160a01b031681526001909101906020018083116103b6575b5050505050905090565b6009546001600160a01b031633146104095760405163ea8e4eb560e01b815260040160405180910390fd5b60065460ff1661042b57604051622900a960e01b815260040160405180910390fd5b60065461010090046001600160a01b031661045957604051631cc6a69960e11b815260040160405180910390fd5b600954600160a01b900460ff161561048457604051631cc6a69960e11b815260040160405180910390fd5b6009805460ff60a01b1916600160a01b1790556007546003545f916104a891610bba565b90505f60646104b8836002610bba565b6104c29190610beb565b90505f6104cf8284610bfe565b6006546040519192505f916101009091046001600160a01b03169083908381818185875af1925050503d805f8114610522576040519150601f19603f3d011682016040523d82523d5f602084013e610527565b606091505b5050905080610549576040516312171d8360e31b815260040160405180910390fd5b5f546040518481527fa8341f104131cae3e9965326a01662a1e0dc3dc60c8d099fefa4578ef8f6f9ae9060200160405180910390a250505050565b6105cf6040518061010001604052805f81526020015f81526020015f81526020015f81526020015f81526020015f81526020015f151581526020015f6001600160a01b031681525090565b506040805161010080820183525f5482526001546020830152600254928201929092526003546060820152600454608082015260055460a082015260065460ff8116151560c0830152919091046001600160a01b031660e082015290565b600f545f9060ff16156106535760405163590bd26f60e01b815260040160405180910390fd5b600f805460ff19166001908117909155600a54600c54600b54600d546040516305d3b1d360e41b8152600481019390935267ffffffffffffffff909116602483015261ffff640100000000820416604483015263ffffffff16606482015260848101929092525f916001600160a01b0390911690635d3b1d309060a4016020604051808303815f875af11580156106ec573d5f5f3e3d5ffd5b505050506040513d601f19601f820116820180604052508101906107109190610c11565b5f8054604051929450849350839290917f587602b661da57eff43c58d2ebb4b7c66d08862f786faf29f390136b3309a12891a35090565b6007546003545f9161075891610bba565b905090565b6009546001600160a01b031633146107885760405163ea8e4eb560e01b815260040160405180910390fd5b60065460ff16156107ac5760405163c117e1ef60e01b815260040160405180910390fd5b60025442106107ce57604051639e6d804f60e01b815260040160405180910390fd5b6007546032116107f1576040516332e1428f60e01b815260040160405180910390fd5b60078054600180820183555f9283527fa66cc928b5edb82af9bd49922954155ab7b0942694bea4ce44661d9a8736c68890910180546001600160a01b0319166001600160a01b0385161790556005805491929091610850908490610c28565b90915550505f546003546040519081526001600160a01b03831691907f03dfbe1fcb4e2d61f3b4a0c93d8f814c92250618b3387f396cc9fc9fafe2c2039060200160405180910390a36007546032036108ab576108ab6108ae565b50565b6009546001600160a01b031633146108d95760405163ea8e4eb560e01b815260040160405180910390fd5b60065460ff16156108fd5760405163c117e1ef60e01b815260040160405180910390fd5b6006805460ff191660011790555f546007546003547fa20a3cd9775b12d4a53017859be239856468d3aab2d496ff3e4b5492996343279190610940908290610bba565b6040805192835260208301919091520160405180910390a26108ab61062d565b6002545f90421061097057505f90565b600254610758904290610bfe565b805f8151811061099057610990610c3b565b6020908102919091010151600e8190556007545f916109af9190610c4f565b9050600781815481106109c4576109c4610c3b565b5f91825260208220015460068054610100600160a81b0319166101006001600160a01b0393841681029190911791829055925460075460035494909204909216927ffee5b04775e1cd2311ed22cd00f5d2403aff38ff6f71d6d393f51854ed6bc98691610a3091610bba565b60405190815260200160405180910390a3505050565b634e487b7160e01b5f52604160045260245ffd5b5f5f60408385031215610a6b575f5ffd5b82359150602083013567ffffffffffffffff811115610a88575f5ffd5b8301601f81018513610a98575f5ffd5b803567ffffffffffffffff811115610ab257610ab2610a46565b8060051b604051601f19603f830116810181811067ffffffffffffffff82111715610adf57610adf610a46565b604052918252602081840181019290810188841115610afc575f5ffd5b6020850194505b83851015610b1f57843580825260209586019590935001610b03565b50809450505050509250929050565b602080825282518282018190525f918401906040840190835b81811015610b6e5783516001600160a01b0316835260209384019390920191600101610b47565b509095945050505050565b5f60208284031215610b89575f5ffd5b81356001600160a01b0381168114610b9f575f5ffd5b9392505050565b634e487b7160e01b5f52601160045260245ffd5b8082028115828204841417610bd157610bd1610ba6565b92915050565b634e487b7160e01b5f52601260045260245ffd5b5f82610bf957610bf9610bd7565b500490565b81810381811115610bd157610bd1610ba6565b5f60208284031215610c21575f5ffd5b5051919050565b80820180821115610bd157610bd1610ba6565b634e487b7160e01b5f52603260045260245ffd5b5f82610c5d57610c5d610bd7565b50069056fea2646970667358221220b94250d4a634ce78cb151291455b17f2be628dce554aea1d1b27702ccaaf642164736f6c634300081c0033a264697066735822122087bb8276ef0c1517813cca6bc65d68f077d472f1448bcee0678bcbdea6cefc7364736f6c634300081c0033",
  "linkReferences": {},
  "deployedLinkReferences": {},
  "immutableReferences": {},
  "inputSourceName": "project/contracts/FortunaCore.sol",
  "buildInfoId": "solc-0_8_28-13f23412d0f197fd918bd4cd6547186fb88e2808"
}